:020000041000EA
:1000000000B5324B212058609868022188439860DF
:10001000D860186158612E4B002199600221596106
:100020000121F02299502B49196001219960352056
:1000300000F044F80222904214D00621196600F024
:1000400034F8196E01211966002018661A6600F04E
:100050002CF8196E196E196E052000F02FF8012189
:100060000842F9D1002199601B49196000215960AB
:100070001A491B48016001219960EB211966A021F2
:10008000196600F012F800219960164914480160C1
:100090000121996001BC002800D000471248134993
:1000A000086003C880F30888084703B5996A0420EC
:1000B0000142FBD001200142F8D103BD02B5186610
:1000C0001866FFF7F2FF186E186E02BD00000240BE
:1000D000000000180000070000035F00212200005C
:1000E000F4000018222000A00001001008ED00E03C
:1000F00000000000000000000000000074B24E7A12
:1001000000200420F7010010CB010010CD010010E9
:10011000C9010010C9010010C9010010C901001077
:10012000C9010010C9010010C90100108D24001080
:10013000C9010010C901001021240010052500107C
:10014000C1010010C1010010C1010010C101001067
:10015000C1010010C1010010C1010010C101001057
:10016000C1010010C1010010C1010010C101001047
:10017000C1010010C1010010C1010010C101001037
:10018000C1010010C1010010C1010010C101001027
:10019000C1010010C1010010C1010010C101001017
:1001A000C1010010C1010010C1010010C101001007
:1001B000C1010010C1010010C1010010C1010010F7
:1001C000EFF30580103800BE00BE00BE00BE00BECA
:1001D00000BE00BEF2EB88716066001088660010F9
:1001E0003802001090A31AE71E481F49086006C88D
:1001F00081F3088810471D480068002801D019487D
:10020000F3E70DA40ECC002902D000F012F8F9E7B4
:100210001749184A002000E001C19142FCD116495B
:100220008847164988471649884700BEFDE701C937
:1002300001C29A42FBD3704788660010C0000020BC
:1002400060040020286A0010000004200000042040
:10025000286A001000100420001004200000000094
:10026000704700000000000008ED00E0000000D032
:1002700060040020508B0020C15A001009050010B6
:10028000B95A0010F8B5C04606480749091A8B103C
:10029000C90FC91810B5491003D0044B002B00D06A
:1002A000984710BD6004002060040020000000009A
:1002B000054B10B5002B03D00449054800E000BFF2
:1002C000FFF7E2FF10BDC046000000001C0B00203D
:1002D00078620010F8B50700012201215242002087
:1002E00001F07CFDBC6901F0C5FB0600201C03F099
:1002F00019FF041E00D101340123BA6A01215360A1
:10030000FA6A002053603A6B35005360002201F016
:1003100065FD002816D0B86903F004FF041E00D163
:100320000134052001F068FB01F0A4FB431BA3424C
:1003300010D22E00050000220121002001F04EFD08
:100340000028E8D1052001F057FB01F093FB831B47
:10035000A342EFD30023BA6A5360FA6A53603A6B40
:100360005360B9E7F0B505004746CE4600230C358B
:1003700080B5A9460700984689B00D4E03AC23000E
:10038000320023CA23C303CA03C34B46220023CA35
:1003900023C303CA03C34346386A002200930021E3
:1003A000022301F071FD034801F026FBE7E7C04698
:1003B000C063001088130000F0B5DE4657464E4675
:1003C0004546E0B501254378047899468378C77897
:1003D00085B006002000984602F00CFA2B00A340DE
:1003E000D0242406484663629B4602F003FA4A463C
:1003F0002B009340404663629A4602F0FBF9424666
:100400002B00934038006362BD40994602F0F2F938
:1004100000236562F3605B466361534663614B464C
:10042000FA21A361A561B068890003F001FBA84629
:10043000071E00D1013701F01DFBD0241D4B012503
:1004400003900193240613E05A4662619A0815420C
:1004500024D0524662615A08154224D04A4662614D
:100460001D4224D043466361390003A801F06EFAAF
:100470007268002AF8D00321F368002A00DD0239EF
:1004800003225B181340019AF360D35CDA0815422B
:10049000DAD15A46A2619A081542DAD15246A261CF
:1004A0005A081542DAD14A46A2611D42DAD14346C2
:1004B000A361D9E7BC630010034B0360034B0B60DF
:1004C000802313807047C046A00A0020A0080020A7
:1004D000034B0360034B0B6080235B00138070476A
:1004E000D4100020D40C002010B5024805F0FAFC0E
:1004F000FEE7C0467862001010B5024805F06EFCB9
:10050000FEE7C0468C620010F0B5CE46474680B587
:1005100083B005F013FC254C1422200000210C3080
:1005200003F042FE0023012023606360A36000F01B
:1005300091FA1F4A0225E26291461E4A0027226371
:10054000904680221C4E1D4B6062A3621C495200E3
:1005500030000197009501F021F880224B4619499F
:10056000520030000197009501F018F880224346B0
:100570001549520030000197009501F00FF8230053
:100580008022203311490193520023001048009526
:1005900001F004F8802223000E4952000E48019712
:1005A000009500F0FBFF01F095F8FEE76C080020D5
:1005B0009803002088030020B9030010A80300203E
:1005C0009C620010A0620010A4620010A8620010DB
:1005D000D5020010B062001065030010030008335C
:1005E00001224360C36003610023524282600360C2
:1005F0007047C046002303617047C046030030B512
:100600000D6808336A1C0DD01C005B681A68AA428A
:10061000FAD94B60996003688C60013361600861AE
:10062000036030BD04696368F3E7C046036941684D
:1006300082688A6051605968814205D00022026157
:1006400018680138186070475A60F7E770B582B0D3
:100650001C006B461D7E002835D0002C33D0002AAC
:1006600034D000292FD050230193019B462301262B
:10067000E6542260E0632164030C0A0C002B2CD1A9
:10068000002A38D101F020FF216CE36B22684B4334
:10069000D018A06000205B1A6260D218E260FF23CD
:1006A0004422A0632000A3540132A3541030FFF76A
:1006B00095FF20002430FFF791FF01F011FF4C233C
:1006C0002000E55400E0002002B070BD0029FAD1FE
:1006D000502301932200019BC8E7002AEFD10A1C96
:1006E00080B289B2414392B29BB25343090C5B186A
:1006F0001B0CC7D0E3E7131C021CF1E7F0B5CE4694
:100700004746040080B585B099460192884601F0BD
:10071000DBFEA26BE36B9A4200D280E04A460023E4
:10072000022A00D1F4E026002436019A002A00D1E2
:1007300004E1002B00D1E7E001F0D2FE01F038F82F
:1007400001F0C2FE4422A35C5BB2013301D100235D
:10075000A3544522A35C5BB2013301D10023A3540F
:1007600001F0BEFE01A902A801F0D2FA002800D0D3
:10077000E8E001F0A9FEA26BE36B9A4200D171E0C0
:1007800001F0AEFE01F0A0FE4523E55C6DB2002D48
:1007900005DC13E0013DEBB26DB2002B0ED0636AB5
:1007A000002B0BD0300001F03BFA0028F2D0013DC5
:1007B00001F0DCFAEBB26DB2002BF0D14523FF2241
:1007C000E25401F08DFE01F07FFE44232700E55C3A
:1007D00010376DB2002D05DC13E0013DEBB26DB2B8
:1007E000002B0ED02369002B0BD0380001F018FA33
:1007F0000028F2D0013D01F0B9FAEBB26DB2002B46
:10080000F0D14423FF22E25401F06AFE00F0D8FF49
:1008100001F05AFEA26BE16B0123914285D9226C53
:10082000A56B002A00D177E04B46002B00D0FBE0FF
:100830004146606803F0BEFC6368226CA1689B18A7
:100840006360626A01358B4201D323686360A563EC
:10085000002A69D101F044FE012005B0C0BCB946B0
:10086000B046F0BD2700103701F03AFE380001997C
:1008700001F028F901F028FE4523E55C6DB2002D5A
:1008800005DC13E0013DEAB26DB2002A0ED0636AC6
:10089000002B0BD0300001F0C3F90028F2D0013D4D
:1008A00001F064FAEAB26DB2002AF0D14523FF22CA
:1008B000E25401F015FE01F007FE4423E55C6DB241
:1008C000002D05DC13E0013DEAB26DB2002A0ED026
:1008D0002369002B0BD0380001F0A2F90028F2D0D8
:1008E000013D01F043FAEAB26DB2002AF0D144238F
:1008F000FF22E25401F0F4FD00F062FF002800D076
:1009000086E701F0D5FD83E702A801F0F5F913E7CA
:10091000226CA56B002A5FD126680135002E78D0A5
:10092000636AA563002B95D02000243001F078F98C
:10093000002800D18EE701F0BBFD8BE701F0D0FD70
:1009400000208AE701F0C0FD45232600E55C24363F
:100950006DB2002D05DC13E0013DEAB26DB2002A54
:100960000ED0636A002B0BD0300001F059F900283B
:10097000F2D0013D01F0FAF9EAB26DB2002AF0D1ED
:100980004523FF22E25401F0ABFD01F09DFD44231D
:100990002600E55C10366DB2002D05DC13E0013D4C
:1009A000EAB26DB2002A0ED02369002B0BD03000C2
:1009B00001F036F90028F2D0013D01F0D7F9EAB292
:1009C0006DB2002AF0D14423FF22E25401F088FDE9
:1009D00000F0F6FE002040E74146E06803F0EAFB45
:1009E000226CE36851429B1A2268E360934202D270
:1009F000A3685B18E360636A002D04D0A563002B35
:100A000000D127E790E70122A263002B00D121E764
:100A10008AE7A06801F0B0F9636AA660A563002BBD
:100A200082D1002887D115E74146E06803F0C2FB78
:100A3000226CE36851429B1A2268E360934205D31B
:100A40004A46636A022AD7D00135D7E7A3685B1804
:100A5000E360F5E770B50600502001F0CBFD041E01
:100A60002DD000254623C554453BC3630060056473
:100A700001F02AFD216CE36B22684B43D0185B1A0E
:100A80006260D218E260FF234422A0602000A563C8
:100A9000A3540132A3541030FFF7A0FD20002430EE
:100AA000FFF79CFD01F01CFD4C230022E6540021C1
:100AB00000232000A5602560E560FFF71FFE2000F1
:100AC00070BDC046F0B5CE464746040080B585B03F
:100AD0008846019201F0F8FCA56B002D00D029E1B9
:100AE000019B002B00D1D0E0260002A801F004F900
:100AF0004427243601F0F4FC00F05AFE01F0E4FC37
:100B0000E35D5BB2013301D10023E3554522A35CD1
:100B10005BB2013301D10023A35401F0E1FC01A930
:100B200002A801F0F5F800285AD101F0CDFCA36B22
:100B3000002B00D0B1E001F0D3FC24239946A1445E
:100B40004846019900F0BEFF01F0BEFC4523E55C7C
:100B50006DB2002D05DC13E0013DEAB26DB2002A52
:100B60000ED0636A002B0BD0484601F059F80028DC
:100B7000F2D0013D01F0FAF8EAB26DB2002AF0D1EC
:100B80004523FF22E25401F0ABFC01F09DFC44231D
:100B9000E55C343B99466DB2A144002D05DC13E0C1
:100BA000013DEAB26DB2002A0ED02369002B0BD0B2
:100BB000484601F035F80028F2D0013D01F0D6F8A2
:100BC000EAB26DB2002AF0D14423FF22E25401F0D0
:100BD00087FC00F0F5FD00284ED101F069FC4BE0E8
:100BE00001F072FC4523E55C6DB2002D05DC13E0DD
:100BF000013DEAB26DB2002A0ED0636A002B0BD021
:100C0000300001F00DF80028F2D0013D01F0AEF8FF
:100C1000EAB26DB2002AF0D14523FF22E25401F07E
:100C20005FFC01F051FC10239946E55DA1446DB2D3
:100C3000002D05DC13E0013DEAB26DB2002A0ED0B2
:100C40002369002B0BD0484600F0EAFF0028F2D0C1
:100C5000013D01F08BF8EAB26DB2002AF0D1FF231A
:100C6000E35501F03DFC00F0ABFD01F02DFCA36B62
:100C7000002B0AD001F034FC01F026FCA56B002DFE
:100C800058D1019B002B00D034E701F029FC002053
:100C900005B0C0BCB946B046F0BD01F021FC01F082
:100CA00013FC4523E55C213B99466DB2A144002D20
:100CB00005DC13E0013DEAB26DB2002A0ED0636A92
:100CC000002B0BD0484600F0ABFF0028F2D0013DCE
:100CD00001F04CF8EAB26DB2002AF0D14523FF22B0
:100CE000E25401F0FDFB01F0EFFB4423E55C343BF3
:100CF00099466DB2A144002D05DC13E0013DEAB236
:100D00006DB2002A0ED02369002B0BD0484600F0AC
:100D100087FF0028F2D0013D01F028F8EAB26DB259
:100D2000002AF0D14423FF22E25401F0D9FB00F065
:100D300047FDA1E7226C002A08D0E168A368891862
:100D4000E16099420BD2404603F034FA2369013D39
:100D5000A563002B06D101F0C3FB012098E72168B1
:100D6000E160F0E72000103000F05AFF0028F2D0D8
:100D700001F09EFBEFE7C04610B5002943D0554B6C
:100D80005A68904200D18EE01A68002A3CD0DA6896
:100D9000904200D19CE09A68002A54D05A6990424F
:100DA00000D193E01A69002A53D0DA69904200D149
:100DB00080E09A69002A52D05A6A904257D01A6A43
:100DC000002A58D0DA6A904200D175E09A6A002A67
:100DD00057D05A6B904200D170E01A6B002A56D05F
:100DE000DA6B904200D16BE09A6B002A55D05A6CB6
:100DF000904267D01A6C002A57D0DA6C904263D0C8
:100E00009A6C002A30D010BDDA68904260D05A69DE
:100E100090425BD01A00DC69A0424BD05C6AA042D1
:100E200025D0DC6AA04247D05C6BA04246D0DC6B88
:100E3000A04245D05C6CA04244D0DC6CA04243D0C0
:100E400011605060DFE75A6990423FD01A000832C3
:100E5000E1E7DA6990422DD01A001032DEE75A6AD3
:100E6000904204D01C4ADCE748331A00E8E7042229
:100E7000D2009A18E4E7DA6A90421DD01A002032B4
:100E8000D2E75A6B904219D01A002832CFE7DA6BBA
:100E9000904215D01A003032CCE75A6C904211D0F3
:100EA0001A003832C9E70022E2E7DA6C90420BD030
:100EB0000A4AC5E70322DBE70522D9E70622D7E77E
:100EC0000722D5E70822D3E70922D1E70222CFE79C
:100ED0000122CDE7E0060020F806002020070020D0
:100EE00070B5050016000C0001F0EEFA4422AB5C70
:100EF0005BB2013301D10023AB544522AB5C5BB242
:100F0000013301D10023AB5401F0EAFAAB6B002BA3
:100F100046D001F0D9FA4523EC5C64B2002C16DD12
:100F20002E00243604E0013CE2B264B2002A0ED066
:100F30006B6A002B0BD0300000F072FE0028F2D05C
:100F4000013C00F013FFE2B264B2002AF0D1452365
:100F5000FF22EA5401F0C4FA01F0B6FA4423EC5C33
:100F600064B2002C16DD2E00103604E0013CE2B223
:100F700064B2002A0ED02B69002B0BD0300000F099
:100F80004FFE0028F2D0013C00F0F0FEE2B264B265
:100F9000002AF0D14423FF22EA5401F0A1FA70BDE7
:100FA000280032002100243000F0D8FDB1E7C0460F
:100FB000F0B5C64600B5040001F086FA374A384E4F
:100FC0001368013313603368002B35D0354BE26A68
:100FD00098461B68002B29D0334D34490B680133E8
:100FE0000B606364324B1968914200D21A6093001F
:100FF0009B189B00E9184A68A2609068844667467F
:10100000E060201D78609060EA5861610132EA502A
:1010100001F066FA43461B68002B04D03368DA6A95
:10102000E36A9A4211D380BCB846F0BD3368DB6AEC
:101030009342D1D83460CFE734601368012B07D0D6
:10104000184BE26A9846184DC7E701F031FAEAE713
:101050006423154D98462F00A84438001437FFF735
:10106000BDFA4745F9D1134B98461800FFF7B6FA79
:10107000114F3800FFF7B2FA1048FFF7AFFA1048E7
:10108000FFF7ACFA0F48FFF7A9FA42460E4B1A6079
:101090000E4BE26A1F60034B98469EE7F8890020DA
:1010A000480B0020988A0020600B0020048A002052
:1010B000088A0020348A0020488A0020848A002080
:1010C000288B0020148B0020500B0020580B002090
:1010D000F8B54746CE460400254B80B51E68254B23
:1010E000254D1F68254B89461B68286898460430A3
:1010F000FFF79CFA631C18D02B6834195C60A64279
:1011000008D9296840460431FFF778FAC0BCB946CF
:10111000B046F8BD296838000431FFF76FFA184B64
:101120001A68A242F2D91C60F0E74B46002B0CD1A2
:101130002A68731E53609E42E3D829683800043140
:10114000FFF75CFA0E4B1B68E0E70E4B29685A6804
:101150008A6090682968C8602968043141602968FC
:10116000043191602A6853611A6801321A60CDE730
:101170003C8B0020500B0020480B0020580B002017
:10118000708A0020148B002000222A4B70B52A4C54
:101190001A6021682268236812681B6B10339A4218
:1011A00004D90B6B25491A688A4233D0216820681C
:1011B0003431FFF799F9224E22493568AB005A19AC
:1011C00092008A58002A32D16A1E93009818800033
:1011D000085800280FD1AA1E9300981880000858BC
:1011E000002808D1EA1E93009818800008580028AB
:1011F00001D12A1F93009B189B00CD186868083303
:101200004068C918686088420ED0C36823603260A5
:10121000236870BD59689142C8D19A688A42C5D185
:10122000DB689342C2D1C6E7E8686860EDE72A0050
:10123000E1E7C046488B0020480B0020A5A5A5A5E6
:10124000088A0020600B0020F8B54746CE461A4BAE
:1012500080B59846194B77279946194D194E2B683A
:10126000002B1AD001F030F94346DB68DC68201D02
:10127000FFF7DCF93368013B33602B68013B2B60DF
:1012800001F02EF9E35D002B0ED0012BE7D12000F9
:1012900001F04AFA2B68002BE4D14B461B68012B66
:1012A000DDD901F005F9DAE7206B01F03DFA200005
:1012B00001F03AFAD3E7C046288B0020600B0020EB
:1012C000FC890020F8890020F0B5DE4657464E46DE
:1012D00045465C4BE0B5186883B0013018600028C3
:1012E00066D059490B68984277D3584B98461B688B
:1012F0001B68002B00D1A0E000239C46544B554DA9
:101300009B4600239946544B01919A46434680469A
:1013100018003AE0494659611168013911609A6A2A
:10132000002A0FD0DE69196AB160DE694E601900CB
:10133000566818318E4200D174E0494699621168AE
:10134000013911605246D96A1268914201D9524658
:1013500011608A0052189200AE18716899608F6807
:10136000DF607C608C60A9585E610131A9505A46EB
:101370001168DA6ACB6A93429B4162465B421A4328
:10138000036894461B68002B52D00368DB68DB6857
:101390005A68904549D39C68D9685A69A1609C688D
:1013A0004C6051681C1DA142B4D1D9685160B1E7AD
:1013B000264B2A4A196814681C60116028490A687B
:1013C00001320A601A681268002A25D101231E49D9
:1013D0005B420B600B68984287D200239C461C4BF3
:1013E0001C4D9B465B4601201B681E4AD96A126849
:1013F0008B005B189B00EB589842804113005A1EEB
:101400009341404218436346184303B0F0BCBB46C7
:10141000B246A946A046F0BD1B680B49DB681B68B5
:101420000B605FE7196A516087E701990A60D9E7A5
:10143000019901235B420B60D4E79C46044B054DA8
:101440009B46F6E73C8B0020708A0020500B002062
:10145000480B0020600B0020088A0020580B002059
:10146000748A0020488B0020F0B5C6469846782341
:1014700000B582B00A9C019307000D001600019B85
:10148000002C00D187E0099B002B00D183E078225B
:101490000021200002F088FE099B022223637723AB
:1014A000B600E254A5213200099802F07DFE072320
:1014B000206B043E86199E43002D4BD034222B789E
:1014C000A354002B43D06B780132A354002B3ED0A1
:1014D000AB780132A354002B39D0EB780132A354FE
:1014E000002B34D02B790132A354002B2FD06B79F1
:1014F0000132A354002B2AD0AB790132A354002B24
:1015000025D0EB790132A354002B20D02B7A013265
:10151000A354002B1BD06B7A0132A354002B16D09E
:10152000AB7A0132A354002B11D0EB7A0132A354D1
:10153000002B0CD02B7B0132A354002B07D06B7BEC
:101540000132A354002B02D04223AA7BE25443234E
:101550000022E254089D042D1BD8201DE562E5649D
:10156000FFF748F820001830FFF744F805235B1B0D
:1015700042463900A36130002461646200F088FFB4
:1015800020602000FFF714FD200002B080BCB846A8
:10159000F0BD0425E1E70020F7E7C046F8B5CE46E8
:1015A0004746960080B5804630000D00994601F010
:1015B00021F8071E00D18AE0782001F01BF8041EF4
:1015C00000D181E07822002102F0EEFD3200A52159
:1015D0003800276302F0E8FD236B043E9E190723C1
:1015E0009E43002D4BD034222B78A354002B43D0A4
:1015F0006B780132A354002B3ED0AB780132A35458
:10160000002B39D0EB780132A354002B34D02B7946
:101610000132A354002B2FD06B790132A354002B3D
:101620002AD0AB790132A354002B25D0EB790132BB
:10163000A354002B20D02B7A0132A354002B1BD0B3
:101640006B7A0132A354002B16D0AB7A0132A3542B
:10165000002B11D0EB7A0132A354002B0CD02B7B42
:101660000132A354002B07D06B7B0132A354002B13
:1016700002D04223AA7BE25443230022E254089D75
:10168000042D1FD8201DE562E564FEF7B3FF20009E
:101690001830FEF7AFFF05235B1BA3614A464146A6
:1016A00030002461646200F0F3FE099B2060002B8F
:1016B00000D01C602000FFF77BFC0120C0BCB946B5
:1016C000B046F8BD0425DDE7380001F02DF8012013
:1016D0004042F3E7F0B585B06B4600259C1C220024
:1016E00002A901A801950295FEF7E6FE7823268857
:1016F000019C0393029F039B002C3BD0002F39D009
:1017000078220021200002F04FFD77230222B6004C
:10171000A52127633800E254320002F045FD236B17
:10172000043E9E1907239E431A4B201D63633823F2
:10173000E5540B33E554E562E564FEF75BFF2000FA
:101740001830FEF757FF05230022A361124930002D
:101750002461646200F09CFE20602000FFF728FCFA
:101760000E4B1C6000F0D2FD012807D00C4B1B680B
:1017700005B0F0BD0022094B1A60F7E772B60122EE
:10178000084B52421A60084B1860084B1D6000F06D
:10179000E5FEEBE749444C4549120010648A0020FD
:1017A000D4630010708A0020988A00203C8B0020AF
:1017B000024A1368013313607047C046008A002054
:1017C000F0B5DE46454657464E46E0B583B000F0DC
:1017D0007BFE544D2B68013B2B602B68002B00D007
:1017E00083E0514B1B68002B7FD0504F3B68002B90
:1017F00000D194E04E4B4F4C9C464F4B019599467F
:101800004E4B9A460023984601339B46FB68DB68A3
:10181000D869196A9A6A8160D86948601900506865
:101820001831884200D173E041469962116801394C
:1018300011609868D9685A698160986848605068F2
:10184000191D884261D01068013810606046DA6A5C
:101850000068824201D960460260900082189500BB
:10186000601942689A609668DE60716091606259A2
:101870005861013262514A461168DA6ACB6A9A426B
:101880003ED953465A461A603B68002BBED12C4BBA
:10189000019D1A681268002A3DD01B68DB681A682F
:1018A000284B1A60284E3468002C14D0012708E019
:1018B000FFF70AFD002801D053461F60013C002CB1
:1018C00008D02B68002BF3D03368013C0133336020
:1018D000002CF6D1346053461B68002B05D0164B04
:1018E00001241B6800F0E4FD00E0002400F0F8FD96
:1018F000200003B0F0BCBB46B246A946A046F0BDEE
:101900003B68002B00D081E7C1E7D86850609AE7B8
:10191000196A516088E70B4B013A1A60C2E7074B1E
:101920009A46BFE7008A0020F8890020848A0020B8
:10193000088A0020600B0020480B0020488B002004
:10194000500B0020708A0020808A0020F8B5CE4617
:101950004746234A80B5136801331360214D03685D
:101960002A685C1893420CD9A3420CD80460002466
:10197000FFF726FF002825D02000C0BCB946B0469E
:10198000F8BDA34201D8A242F0D22E68164DB31A78
:101990009946164B04601F68154B4C441B68286819
:1019A00098460430FEF742FE2B6829685C600431DB
:1019B000A6420AD94046FEF721FE0124FFF700FFA8
:1019C0000028D9D100F074FDD6E73800FEF716FEE6
:1019D000084B1A689442F0D21C600124EEE7C0461E
:1019E000008A00203C8B0020480B0020500B002078
:1019F000580B0020708A0020F0B5C646040000B5E0
:101A000000281DD0154A136801331360144B154D7F
:101A10001E68154BA4191F68144B1B68286898464C
:101A20000430FEF703FE2B6829685C600431A6428F
:101A30000BD94046FEF7E2FDFFF7C2FE002801D1B8
:101A400000F036FD80BCB846F0BD3800FEF7D6FD8C
:101A5000074B1A689442EFD21C60EDE7008A002021
:101A60003C8B0020480B0020500B0020580B00201E
:101A7000708A0020014B18687047C0463C8B0020DC
:101A8000064B10B51B68002B02D1FFF71DFC10BDE3
:101A9000034A0020136801331360F8E7008A00202E
:101AA000808A0020054B10B51B68002B03D0012253
:101AB000034B1A6010BDFFF767FBFBE7008A0020AD
:101AC000488B0020F0B5C6460C001E4D00B52968B5
:101AD0001831FEF793FD1C4B1E681C4B1F681C4BF6
:101AE0001B68286898460430FEF7A0FD631C15D0DB
:101AF0002B682968A4195C600431A64205D94046C8
:101B0000FEF77CFD80BCB846F0BD3800FEF776FDE0
:101B1000104B1A689442F5D21C60F3E70E4B29680B
:101B20005A688A6090682968C860296804314160F1
:101B30002968043191602A6853611A6801321A6079
:101B4000E0E7C046480B00203C8B0020500B0020F3
:101B5000580B0020708A0020148B0020F0B5C64678
:101B6000294C43680D00216800B5CB619E6821684F
:101B70000E622168183171602168183199602368FC
:101B80009862036801330360204B002A1DD01B6854
:101B90001F4B1B681F4B1B6820680430FEF746FD77
:101BA0001D4B21685A688A6090682168C860216866
:101BB00004314160216804319160226853611A68E0
:101BC00001321A6080BCB846F0BD1E68104BAD19DA
:101BD0001F68104B1B68206898460430FEF726FDEE
:101BE000236821685D600431AE4208D83800FEF7F2
:101BF00005FD0A4B1A689542E4D21D60E2E74046B3
:101C0000FEF7FCFCDEE7C046480B00203C8B0020C2
:101C1000500B0020580B0020148B0020708A0020ED
:101C2000C36870B5DB68D869196A9A6A8160D86937
:101C30004860180051681830814243D000219962F1
:101C4000116801391160264A1268002A2CD198685F
:101C5000D9685A69816098681C1D48605168A14222
:101C600033D01168013911601E4AD96A1068814267
:101C700026D88A001C485218920085186968996015
:101C80008E68DE6074608C6081585D6101318150C6
:101C9000164A00201168DA6ACB6A9A4203D90122F7
:101CA000134B01301A6070BD124A5168D9618C68BB
:101CB0001C626060886011689A6201311160E7E718
:101CC0001160D6E7196A5160B8E7D96851601168A8
:101CD00001391160034AD96A10688142C9D9EFE716
:101CE000008A0020088A0020600B0020480B00209A
:101CF000488B0020848A0020034B1B680360034B41
:101D00001B6843607047C046748A00203C8B0020EB
:101D1000F0B5C6460D0000B5040000F0D5FB114A31
:101D20002B681168581C1BD00F4E60683768B84686
:101D3000276847450AD0884208D8002301242B6031
:101D400000F0CEFB200080BCB846F0BD0F1ABB42AD
:101D5000F3D95B1A1B182B60336823601368636028
:101D60000024EDE73C8B0020748A00200122014B07
:101D70001A607047488B002070B5041E08D0036DB0
:101D8000C16AC26C013B0365914201D0002B01D0B6
:101D9000002070BD051D2800FEF748FC0523E26CFD
:101DA0009B1AA3610B4BE26219688A4200D91A6040
:101DB000930009499B189B00C8184268A260966866
:101DC000E66075609560CA58606101320120CA50B2
:101DD000DFE7C046088A0020600B0020F8B5040049
:101DE0004746CE46264E1A3433689046A200D35852
:101DF00080B505000F009146002B02D14346002B11
:101E00001CD100F061FB3368A400E3589846002B16
:101E100004D03368002F0DD00022E2500023306838
:101E200040197430037000F05BFB4046C0BCB946FB
:101E3000B046F8BD4246013AE250EFE7114A136856
:101E40000133136000F040FB4A463368D358002B3F
:101E500004D000F045FBFFF7B3FCD2E70122336862
:101E60005B1974331A7000F03BFB01214046FFF709
:101E70002FF9FFF7A5FC0028C3D100F019FBC0E73C
:101E8000480B0020008A0020F0B5C64600B5069D2C
:101E900006000C0090461F0000F016FB002D04D039
:101EA00023001A339B009B592B6002233119743194
:101EB0000D780B70EDB2032F16D011D8012F44D03E
:101EC000022F04D1A4003419A36E0133A366012D9F
:101ED00010D0012400F004FB200080BCB846F0BD07
:101EE000042FF4D1022D37D043461A34A400A35155
:101EF000012DEED1B168F26873698A60B168301D56
:101F000051605A68824229D01A68013A1A60154B0A
:101F1000F26A19688A4200D91A60930012499B1824
:101F20009B00CC186268B2609568F560686090604C
:101F3000CA5874610132CA500C4B1B68DA6AF36AE2
:101F40009A42C6D200F0B4FAC3E74246A40034195C
:101F5000A36E1343A366BAE70024BBE7F2685A6096
:101F6000D2E7C046088A0020600B0020480B002002
:101F7000F0B55746DE464E464546E0B5CE4B8BB0F3
:101F80009846CE4B06AF0193CD4B9B46CD4B994621
:101F9000CD4B4C4602932823D9469A46C3465B460E
:101FA0001B681D68002D00D0E1E0FFF701FCFFF782
:101FB00061FD019A80461368834200D9E7E04B46F1
:101FC0001B6810601A6853425A4143462068E91A58
:101FD000FEF786FFFFF7F4FB002800D12BE110226B
:101FE0000021380002F0E0F8002239002068FEF7F6
:101FF00069FD0028D3D03B68002B5ADBBD68002D5B
:10200000F2D06B69002B02D0281DFEF70FFBFFF703
:1020100031FD019B06001B68984252D3019B1E6054
:102020003B68092BE0D8029A9B00D3589F46534641
:10203000E85C012352460343AB547968AA692D61D9
:102040008B186B60B34200D986E0711A8A4219D8A6
:10205000410700D5F2E0012398435346E854280095
:102060002B6A9847C0E753460122EB5C1343524664
:10207000AB547B682D619A19AB616A60B24270D82B
:10208000002BB1D04B46291D1868FEF7B7FAABE715
:1020900053460122EB5C93435246AB54A4E75346AC
:1020A000EB5C9A0700D4C2E0012293435246AB5442
:1020B0009AE77B68F968B86898473B68002B93DB20
:1020C0009CE75B461B681A68002A3ED00395049083
:1020D00005940BE0012293435246A354236A200047
:1020E00098475B461B681A68002A2BD0DB68DC68BF
:1020F0001E68231D18009846FEF798FA53460422DE
:10210000E35C1A42E6D0A3692461F518F6436560E2
:102110009E420AD32E00F643236A20009847A36903
:102120002461ED186560B342F4D94B464146186806
:10213000FEF764FA236A200098475B461B681A681A
:10214000002AD3D1039D049E059C4A465946126835
:102150000A604A46136061E7B14202D9994200D849
:1021600076E75B46291D1868FEF748FA3CE7DB680E
:102170001D68FFF71DFBFFF77DFC019A8046136881
:10218000984204D3106085427AD900221DE75B464D
:102190001B681A68002A3ED04246049403920BE062
:1021A000012293435246A354236A200098475B467A
:1021B0001B681A68002A2BD0DB68DC681E68231DA8
:1021C00018009846FEF732FA53460422E35C1A429E
:1021D000E6D0A3692461F518F64365609E420AD3F0
:1021E0002E00F643236A20009847A3692461ED1866
:1021F0006560B342F4D94B4641461868FEF7FEF9D4
:10220000236A200098475B461B681A68002AD3D1CE
:10221000039A049C90464A46594612680A604A4608
:1022200013604246019B1A60FFF7CAFAD7E62800FE
:1022300000F07AFAD8E600F03BF9D0E6A046340088
:1022400007E0E31A9A4214D82B6A28009847330013
:10225000AA69D6186E602D61B442F2D29C4201D2B6
:10226000B342F1D95B46291D18684446FEF7C6F90A
:10227000F5E64B46291D18684446FEF7BFF9EEE621
:10228000FFF79EFA5B461B68DB68DE68331D1800AB
:102290000393FEF7CBF95346F35C5A0707D40122A8
:1022A00093435246B3543000336A984797E622006E
:1022B0002B004446904610E04C0B0020688A00201A
:1022C0005C0B0020408B0020D8630010E31A9A4278
:1022D00014D8336A300098472B00B26936619D18D4
:1022E0007560A542F2D9A34201D9AB42F1D95B4650
:1022F000039918684446FEF781F9D4E74B460399E1
:1023000018684446FEF77AF9CDE7C046F0B589B0C3
:1023100000F0DAF81F4C2568002D20D000F0E0F81E
:1023200023680020002B18D016246C44220006904D
:10233000079007A906A8FEF7CBF8069B2288029310
:10234000079B154901930323144800930023FFF7CB
:102350008BF8134B1860431E984109B0F0BD114F24
:102360003800FEF73BF9104E3000FEF737F90F4BFF
:1023700010211F600E4B0A201E600E4A0E4B009566
:10238000FEF764F920600028C8D00C49FEF7F4FC81
:10239000C4E7C046408B0020C8620010711F0010C7
:1023A000448B00200C8A0020208A00204C0B002047
:1023B0005C0B002054890020C48A0020C0620010F9
:1023C000202310B582B0041E019305D0002308C05D
:1023D000FEF704F901232377200002B010BDC046A8
:1023E0000B4A13681868203080F30988022080F3B4
:1023F0001488BFF36F8F3FBCAE4608BC04BC62B606
:102400001847C046C046C046C046C046C046C04643
:10241000480B002000000000000000000000000049
:10242000EFF30980164B1A6820381060F0C044465C
:102430004D4656465F46F0C00D221207146E556E8B
:10244000566F176F3038F0C008B572B6FFF72AFB29
:1024500062B60CBC116808681030F0C8A046A946E6
:10246000B246BB4680F309880D2212073038F0C807
:102470001466556656671767F0C81847C046C046C9
:10248000480B002010B500F0EDF9C0467047C0467B
:1024900010B58024031F64041C60043B19600349C9
:1024A000043B1960143B40381A6010BD85240010AD
:1024B0008022044B52051A60BFF34F8FBFF36F8F1A
:1024C0007047C04604ED00E072B6044A1368013359
:1024D0001360BFF34F8FBFF36F8F7047F4890020F5
:1024E000034A1368013B1360002B00D162B67047AA
:1024F000F4890020EFF3108072B6704780F31088E3
:102500007047C04610B5FFF7F5FF0400FFF7B8FAB3
:10251000002803D08022034B52051A602000FFF7E9
:10252000EDFF10BD04ED00E0002310B5084A094C92
:1025300005202360136001F081F8FA21890001F081
:1025400077FA054B013818600723236010BDC04699
:1025500018E000E010E000E014E000E0FF22134B80
:102560001204196810B50A431A60FF22196812068E
:102570000A431A600E490E2003F0DCFD0D490F20BE
:1025800003F0D8FD0C490B2003F0D4FDFFF7CCFF7E
:1025900000220A4B1A60D0221206094B12681A70E8
:1025A000FFF71EFFFFF77EFA00F05CF920ED00E078
:1025B00021240010052500108D240010F48900202E
:1025C000B803002010B500F075F9064A064B944692
:1025D0006044800018600548FFF7F2FE044B186065
:1025E00010BDC04640000034440B0020A48A0020E7
:1025F0005C8A0020F0B5C646431E00B50A3315D8E4
:10260000072304001A0008342240234200D172E05C
:102610001300093BA34209D31030841AFFF7C8F80E
:102620003A4A27001568002D2AD110E0FFF7C0F8BC
:10263000364A1368002B08D0FFF7C2F80025FDF7D3
:102640005BFF280080BCB846F0BD002700240720AF
:102650002F4D2B002900284249D100202D4E7060BB
:1026600031602D4EB44607266544B54315602B4AAC
:10267000EB1A13602A4A6860286013604B600D6093
:10268000002FD9DB002CD7D0254F3E68A642D3D3EC
:102690002048036804E01A68002A04D018001300D8
:1026A0005968A142F7D3AB42C6D01D001A6808355D
:1026B000904602600A1B102A05D919194A60424641
:1026C0000A6001602100154A761A10683E60864251
:1026D00000D21660802212060A435A6000221A6055
:1026E000104A136801331360FFF76AF8A9E7EB1D7E
:1026F00083431900B1E7FFF75BF8044A2700156828
:10270000002DA4D0002CBFDA96E7C046540B002061
:10271000541100209C8A0020F87700006C8A002069
:10272000608A0020788A002070B5002804D008381C
:1027300043680400002B00DB70BD0268002AFBD157
:102740005B005B0843600500FFF732F8184A6168D8
:1027500013685B181360174B1A001B689C42FBD868
:1027600050681618B4420DD0601883421AD0236006
:10277000AA4200D01560104A136801331360FFF7B6
:102780001FF8D9E70918501851608342F3D10B485C
:10279000150000689842EED058681B6841186960BF
:1027A0002B60E5E7054800688342F5D1DFE7C046C6
:1027B000608A00209C8A00207C8A0020540B002024
:1027C000094A83009A1810B5146840225440803298
:1027D0002240064CC000A44663441A60044B9C4649
:1027E0006044416010BDC04604C0014004D00140B7
:1027F000004001400123D02283401206936293617E
:10280000094A83009A1811684022514080320A40D8
:102810000649C0008C4663441A60054B9C4605235C
:10282000604443607047C04604C0014004D001408A
:10283000004001400FB400B5084883B003F0CEFA61
:10284000049B002B07D005A91800019103F01AF989
:10285000034803F0C3FA012003F02CF9D062001002
:10286000E062001010B50148FFF7E4FFE4620010D9
:1028700070B5EFF3108C72B60D4D2B68002BFCD0A9
:10288000BFF35F8F0724CB08C618C05C01230C4040
:10289000A3401C000440034207D118433070BFF32B
:1028A0005F8F2C608CF3108870BD1000FFF7C2FFA3
:1028B0002C0100D0044A1078431CDBB2172B00D93E
:1028C000102313707047C046B90300200021044B49
:1028D000044ABFF35F8F02C39342FAD17047C046E8
:1028E000000100D0800100D0054B064A1360064A63
:1028F000136053609360D3601361536193617047B9
:102900008080808000E400E004E400E01F231840A1
:102910001E3B8340002905D0C021044A4900535082
:1029200013607047802201498B50FAE700E100E014
:1029300070B50D00EFF3108672B60F4A1368002BC6
:10294000FCD0BFF35F8F0D4B10309B6884001B5988
:102950000B4A934203D09D4201D000F017FF074B72
:102960009B681D51BFF35F8FBFF35F8F0022024B47
:102970001A6086F3108870BD240100D000ED00E0DD
:10298000C1010010F0B5DE4657464E464546E0B55B
:102990000C0083B0EFF3108872B6634A1368002B03
:1029A000FCD0BFF35F8F614B61499A68030010331D
:1029B0009F00D55901938D4243D0A54254D05D4E1E
:1029C000AA1B2F2A3DD85C4B9B461B6899460123C6
:1029D0001A009C4682404B4613401F22994663468C
:1029E000024093409A4680225B4650469850BFF37F
:1029F0005F8FEFF305839B46002B37D0019B5B4530
:102A000001D000F0C3FE01232A009A43906884425B
:102A100008D176E04B005B189B00F318986884425D
:102A200036D01A00062151560029F3DA844254D0D8
:102A30004B46002B27D0C02251463F4B52009950A5
:102A400019603A4B9B68DD51BFF35F8FBFF35F8F17
:102A50000022354B1A6088F3108803B0F0BCBB46E7
:102A6000B246A946A046F0BD0D00EAE72A0063463B
:102A70009A4390688442D5D106201056130000284E
:102A80000ADA0D0031E0802351462B4AD150D8E7B5
:102A900006201856002821DB4200111889007418FE
:102AA0008B46A1689960E179D971062161569971C7
:102AB000002924DBA488F11A640524155C44091953
:102AC00009051E4C490D2143998013181C4A9B008F
:102AD0001178F31899711070AAE71300594600296C
:102AE00014D1FF3191711749918015490A789A7173
:102AF000154A9B1B5B415A43120D0A7098E7114916
:102B0000E2E70620105613000028C5DA0F4A1049E4
:102B1000D21A083A5002400D014399800D495208DB
:102B20000A43DA8084E7C046240100D000ED00E0CB
:102B3000C1010010BC03002000E100E000E0FFFF45
:102B40004D8B002001BDFFFFAAAA0000F603002064
:102B500000F0FFFF00F8FFFF70B501240443EFF31E
:102B60000581EFF3108C72B6214A1368002BFCD05C
:102B7000BFF35F8F1F4B05001F4AED1A6D416A437B
:102B8000120D1E4D8900AE6852B27658A6421CD076
:102B90000621595691421CD012215956914222D0F9
:102BA0001E215956914220D02A2159560324914280
:102BB00010D0134B19781A708171BFF35F8F002208
:102BC0000B4B1A608CF3108870BDAB680D4C5C50D9
:102BD000EFE700246100091989005B18FF21997152
:102BE00009499980E5E70124F4E70224F2E7C046A9
:102BF000240100D0BC030020AAAA000000ED00E0E0
:102C00004D8B0020C101001001BDFFFF024B9C460F
:102C100061448900016070474000003470B5114C78
:102C2000114DAC420FD2FF262368002B0CD0FFF7CA
:102C300041FE01002000FFF7E9FFA680BFF35F8F90
:102C40000834AC42F0D370BDFFF734FE0100200021
:102C5000FFF7DCFF2671BFF35F8F0834AC42E3D38C
:102C6000F1E7C04658040020600400200A4B1968B0
:102C7000EFF3108072B60A68002AFCD0BFF35F8FB2
:102C80001B68BFF35F8F00221A6080F3108840BF7B
:102C9000002000217047C046D00C0020F0B5DE4671
:102CA00057464E464546E0B587B0EFF3058303220D
:102CB00001251A40954091008846A946B14B0392E0
:102CC0005C58B14B1D60B14B04934B46B048436315
:102CD0000823E55E002D37DAA3881BB2002B00DB4A
:102CE000ADE0A379002B00D0EEE00823E15E0029DF
:102CF00020DB4B0062695B18DB00D3189E68DD683F
:102D0000731C00D10DE1A24801004144826A0B69A5
:102D1000B71A9B1A9F4215D30123026A0398834076
:102D20001A420FD09A4800F0C5FA8D4202DCCCD18D
:102D30008642CAD940BF07B0F0BCBB46B246A946DE
:102D4000A046F0BD0E61EDE762696B0092465B192B
:102D5000DB009A4453469E68DF6800F0ABFA8F426E
:102D6000BADC00D1FFE0002F00DAE4E0524653461F
:102D700052691B699346049A934200D1D5E05246AA
:102D80000821605E5288000459461043984700901D
:102D900001910099019A0B001000134300D1CAE081
:102DA00013000A00B61A9F41002806DB784800F09D
:102DB00081FA009E019F36184F4153469E60DF60A6
:102DC00000229A5E002A00DA86E7530099186069AB
:102DD000C900411802938B68C9689B46B94200DD5F
:102DE0007AE702D1B34200D976E708239C46A4448F
:102DF000059565462281A446029B2C0006E05300FF
:102E00009918C90041188D68C968AB469B18DB004A
:102E1000C318B94206DC00D1AFE01C000023E25E1B
:102E2000002AECDA230064469C4653461A80634627
:102E3000059D1D80A3881BB2002B00DA51E7226993
:102E4000EFF3108172B61368002BFCD0BFF35F8FD5
:102E50000123A7885B42A3803FB22369BFF35F8F42
:102E600000221A6081F31088002F00DA39E723006E
:102E7000083322009A4666697B00DB19DB00F318F1
:102E8000996850468C460824115FDD68002910DBE4
:102E9000029306E0AB4240D00023E15E200000290F
:102EA00006DB4C006418E4003419E368AB42F1DD42
:102EB000029B078000201F5E1980002FDCDA1400BF
:102EC000A379002B00D110E70023A371260008236B
:102ED000E15E08364B1C00D12CE7B446656903E07F
:102EE00084464B1C00D100E74B005B18DB00E81860
:102EF0000A00E95E43881BB2002BF1DA0126764214
:102F0000F7178660C7600826A35F9342E9D063463F
:102F10001980238903802281E3E7A3686345BBD935
:102F2000C6E76B1C00D0EEE6FCE65B4658461B6924
:102F3000984700281BD153461B8822692381EFF351
:102F4000108372B611680029FCD0BFF35F8F514621
:102F500062880A8022696580BFF35F8F002111605B
:102F600083F31088B8E6864200D8FCE6B4E65B46F8
:102F70001A685B68009201930BE7B34500D84CE7F1
:102F800050E7C046340B00203C7005409D2C0010DB
:102F90000040054070B52E4C2569002D04D00A2153
:102FA0002C48FFF733FE70BD2B4E0321300000F09C
:102FB00077F9E660FFF77EFC284B03229C46D0237E
:102FC00022701B061B6801216370254B6044A360BF
:102FD0000F23800020610220638063694942A18041
:102FE00019800231198647311D83585218315A52BF
:102FF00075325C39995218320131995218320131C7
:103000009952183201319952083518329D520231C5
:1030100018329952183201319952183201319952AD
:103020001832013199521832013199521832013156
:1030300099520C4B0C49DC6001303562FFF778FC8B
:1030400001210320FFF762FC084B1D60A7E7C04683
:1030500004040020D00C0020004005404000003453
:10306000FFFF1000340B00209D2C0010386005403D
:1030700070B501000469EFF3108C72B62068002867
:10308000FCD0BFF35F8F02200D5E4C6968004019D1
:10309000C00024180869002D36DB26884E80BFF357
:1030A0005F8F002606608CF31088E36063880498C5
:1030B000013320615B0405985B0CA26060611A1CFF
:1030C000002B1FD093B22804628018430A69EFF3E3
:1030D000108C72B61368002BFCD0BFF35F8F8B8807
:1030E00023808D800B69BFF35F8F00221A608CF301
:1030F00010880B7801329A40CB6808498C466344AB
:103100001A6070BD0122DDE7BFF35F8F002303600B
:103110008CF3108801204042F3E7C0463C200000B9
:1031200010B543890A1493421ADD53009B18426973
:10313000DB00D3180469EFF3108C72B62268002A02
:10314000FCD0BFF35F8F5A88090494B2090C8A42FD
:1031500008D00369BFF35F8F00221A608CF31088D8
:10316000002010BD8022120214435C8001230269FA
:103170008371BFF35F8F002111608CF310880449C5
:1031800002788C469340C268012062441360E8E7ED
:103190003C200000F0B557464E46DE464546E0B5B9
:1031A00006000F0085B0EFF3058399468B46002B90
:1031B00012D0384900204B6ABB4206D38A6ADB1B17
:1031C000591E8B41B2424041184305B0F0BCBB468A
:1031D000B246A946A046F0BD2F4B9A46DB689846FA
:1031E00053461B784046039300F064F84246039B25
:1031F000040004339B009B580D001B1A390030005B
:10320000001BA941894510DC0DD020BF214A0020B8
:10321000536A5B45D9D3926ADB1B591E8B41B2427C
:1032200040411843D1E78342EFD900F04BF8320018
:103230003B00121A8B41002B1ADB00230193174B22
:103240003200009350463B00FFF712FF011E0FDDD6
:10325000104B5A6A5A451BD39B6AB34216D3504649
:10326000FFF75EFF0B4A0020536A5B45ADD3D2E700
:10327000084A0020536A5B45A7D30020926ADB1BF3
:10328000B24240415A1E934118439EE75A45E6D147
:1032900020BFE4E700400540040400206D2C00102E
:1032A00010B5024A0248FFF7E3FA10BDF4620010BD
:1032B000380800200300416A0A00986A596A8A4265
:1032C000FAD17047034B596A0A00986A596A9142C9
:1032D000FAD170470040054070B504000D00174A50
:1032E000536A1900966A536A8B42FAD1300019006A
:1032F00024184D41AB4216D813D0104B2A005B6AFC
:103300009D4203D90D494B6A9342FCD3934207D1A6
:103310000A4A02E0516A994202D1916AA142F9D364
:1033200070BDA642E9D9054B5B6A1C005A1CEFD060
:10333000012201246442E5175242E3E700400540C0
:10334000F8B5040006200D0000F078F9002844D0FC
:10335000374B3849E3185A1E934180221204944691
:103360005B429B0D344A9B0563441360334A1360F0
:1033700018000A689043FBD12D4B314AE31859429B
:103380004B4180215B0049000620995200F056F91C
:103390002900C00000F04CFB0130C3091ED14027BA
:1033A00001226262A362266BF30722D4E36A254BF3
:1033B0000620E51800232B60266300F03FF9390052
:1033C000800000F035FB7023E26A5A400E33134050
:1033D0002B601D4B23630323A364F8BD1B4A934258
:1033E0001ED900231A4A1B4F6262A362266BF307A1
:1033F000DCD5194B144AE3181A60656AA36A0620E3
:10340000AD01ED1800F01AF9144900F011FBAD02FE
:103410000100280000F00CFB0021FFF75DFFC5E76D
:103420004006800E9F011A003F180300B9E7C0460E
:103430000080FCBF08C0004000E0004000F00040F9
:103440004C1100202C10000001030000FEFF0000C2
:10345000FFFF0000C0FF3F00303000004E0E0000B4
:10346000F8B5DE464E4657464546E0B58B46050064
:103470000A991800160000F0DBFA0A9B6C001F0284
:10348000324B64199C46A4006444636881469F42A1
:1034900000D967602B1FDBB29846012B30D9C023BF
:1034A00080229B01E31812011A60294BAD00595983
:1034B0009A4600291BD17301E026226853401E4022
:1034C000802342465B01E3181E60012A30D9802325
:1034D00080229B01E31812011A6053464A46676036
:1034E0005A51F0BCBB46B246A946A046F8BD586941
:1034F00000F09EFA013043001B18033BFDD2DAE7CF
:103500005B46012BCBD1C02303229B01E3181A6039
:10351000023AA3681A42FCD07301E0262268AD008B
:1035200053401E4080230A4A5B019246E3181E6006
:103530005A462168514003220A401A6001225B4624
:103540009A40A3681A42FCD0C1E7C0460080004000
:103550003C080020F0B546464F46D646C0B51F0091
:10356000344B44009C462418A40064446368884695
:103570001600FF2B02D880235B006360031FDBB2C1
:103580009A46012B30D9C02380229B01E3181201F7
:103590001A60294B85005959994600291BD173019E
:1035A000E026226853401E40802352465B01E31808
:1035B0001E60012A30D9802380229B01E31812016A
:1035C0001A6080235B0063604B465F51E0BCBA46E3
:1035D000B146A846F0BD586900F02AFA0130430010
:1035E0001B18033BFDD2DAE74346012BCBD1C023A6
:1035F00003229B01E3181A60023AA3681A42FCD026
:103600007301E0262268850053401E4080230A4A49
:103610005B019146E3181E60424621685140032237
:103620000A401A60012342469340A2681342FCD02C
:10363000C1E7C046008000403C080020014B8000EC
:10364000C05870473C080020F8B5040021481E000F
:1036500017000D0000F0ECF90100380000F0E8F967
:10366000069B36041B031E432368002B20DB1A4BEA
:103670001A49E3185A1E93418022920194465B42F4
:103680001B0B174A1B0363441360164A13601F0089
:103690000A689743FBD1144B2560E2182123A060F0
:1036A00013602368002BFCDA0823E6601360F8BD82
:1036B0003F2322681340AB42D9D1A3681B051B0DE1
:1036C0008342D4D1EE22E368D2021340B342CED17A
:1036D000EDE7C046001BB7000040FDBF08C000403A
:1036E00000E0004000F00040043000008023024A67
:1036F0009B000B43D362704700800540002310B548
:103700000100988A1B8B984710BDC046162310B540
:103710000100188802331B88984710BDF8B547464A
:10372000CE4680B50F1E18D01423994604330400EA
:103730000025012698464B461888434621681B8879
:10374000984701C4431E984101350640AF42F2D16B
:103750003000C0BCB946B046F8BD0126F8E7C04607
:10376000AA23064A1B0113608D235B00D360044922
:10377000044B19605368002BFCDA7047004002408C
:1037800000B0FA00006002407047C04610B5014822
:10379000FFF750F81863001070B5074D074EB5429B
:1037A00009D20024013E761BB60808CD98472300B5
:1037B0000134B342F9D170BD306200106C62001068
:1037C000054B064A06491A60064A074B1A60100064
:1037D0000B689843FBD1704700E00040BFCDFBFE73
:1037E00008C00040FE7F3C0000F00040044BDB6C52
:1037F000002B03D18022034BD2021A607047C046CF
:10380000000011504C201150044A054B1A60054A23
:103810001368DB018033FBD17047C046FFFFFF0117
:1038200000F0004008C000404022034B9A675A67EE
:103830001A67DA667047C04600F0014010B5FFF71E
:1038400045F810BDF8B52749274C284D641AA61035
:103850003200302E00D930222800920000F0AAFC5D
:10386000BC2C3BD830202F232C196407204A801B06
:10387000E40F9B1B052B16D93700002C02D0B30098
:10388000771CEA50001B33199B004108EB18C90054
:10389000C9181A605A6008339942FAD101230342C9
:1038A0001CD09843C619B300EA50731C2F2E15D0B4
:1038B0009B00EA50B31C2E2E10D09B00EA50F31C44
:1038C0002D2E0BD09B00EA50331D2C2E06D09B00D2
:1038D000EA50731D2B2E01D09B00EA50054B9D60D2
:1038E000F8BDC04600010010C0010010000000201B
:1038F000C101001000ED00E0002310B5294C82B09A
:10390000A367FFF72DFF0122274B1A60636C012B81
:10391000FCD10322254B1A60224A936B012BFCD168
:10392000013300930121224A22480433FFF78CFE21
:10393000052301210093204A2048FFF785FE00223D
:10394000022104201E4BFFF705FE00220121052065
:103950001C4BFFF7FFFD0022002107201A4BFFF749
:10396000F9FD002200210820174BFFF7F3FD80230B
:10397000DB000093002200210920134BFFF770FDAC
:103980000022104B00210620FFF7E4FD0420FFF782
:1039900055FE0E4900F04CF801000020FFF7A6FE8E
:1039A00002B010BD008000403CB0004030B000408C
:1039B000002F685900800240008C864700C00240FA
:1039C000001BB70040597307006CDC0240420F0037
:1039D00001480421014B1847200400201D37001026
:1039E000124A936F9B0815D29066D166002905D0C4
:1039F000FFE7FFE7FFE7516F106F704704B58021C5
:103A00000906C2175140002800D0C84302F000FC4C
:103A1000002104BDF0B5146E556E576F166FFFF799
:103A2000E3FF1466556657671667F0BD000000D0C7
:103A3000114A936F9B0813D210665166002905D076
:103A4000FFE7FFE7FFE7516F106F704704B50028ED
:103A500001D00020C04302F0DBFB002104BDC046C2
:103A6000F0B5146E556E576F166FFFF7E5FF1466CD
:103A7000556657671667F0BD000000D094464A4A65
:103A8000926F9208624601D228E0C046F0B5464ED9
:103A9000346E756E776F366F00F020F89446424AA8
:103AA00014665566576716676246F0BD94463E4AEF
:103AB000926F9208624601D254E0C046F0B53A4E89
:103AC000346E756E776F366F00F04CF89446364A58
:103AD00014665566576716676246F0BD002B24DBF7
:103AE00011D000293EDA00B5C943404200D101316E
:103AF00000F038F8C943404200D10131DB43524263
:103B000000D1013300BD002AEBD1002801D10029EA
:103B100005D00020C90FC90701D1C043410800B535
:103B200002F06EFB0022002300BD00B500290ADB75
:103B3000DB43524200D1013300F014F8C943404244
:103B400000D1013100BDC943404200D10131DB4306
:103B5000524200D1013300F005F8DB43524200D15C
:103B6000013300BD002923D1002B18D1002A0CD02D
:103B7000BC460D4F38667A6600210023FFE7FFE759
:103B8000FFE77A6F386F67467047002801D0074813
:103B9000010000B502F034FB0022002300BD02004A
:103BA0000B00002000217047000000D0FFFFFFFF46
:103BB000002B00D0BFE0130C28D1002AE7D080B43E
:103BC000114F39667A66FFE7FFE730B4040C7B6F6C
:103BD000396F1B0423433B667A66FFE7FFE7FFE785
:103BE000C04684B27B6F3D6F1B0423433B667A66FD
:103BF000FFE7FFE7C04600232C042D0C7A6F386FD7
:103C000000196941B0BC7047000000D0F0B594467F
:103C10000025140E01D112020835140F01D1120132
:103C20000435940F01D192000235D40F01D1520016
:103C30000135D40B0134254F7C66254C3C660E0CB7
:103C400093B2FFE7FFE7FFE73C6F6643360C77036D
:103C5000BE467343DF0B5B04C01AB941130C7343B8
:103C6000DB18C91ACE086643360CB64493B27343C8
:103C70001F0F1B01C01AB941130C73431F0B1B0507
:103C8000C01AB941860D8F023E436643360C092D9A
:103C900024DB520A7243801A7703460A6643360CC5
:103CA00016235B1BDE40DF40BF1964466643821B60
:103CB0007046043506330100D940A840C01900D32E
:103CC0000131A24206D20023F0BD0000000000D066
:103CD000FFFFFFFF121B0130F3D3F1E709277F1B22
:103CE000FE406446A2B27243801A00D20139220C0F
:103CF0007243130C1204821A99410B00704604356A
:103D000013370100F940A840801900D30131002B7E
:103D100002D1A2420AD2F0BD013000D30131121B00
:103D2000FAD2013BF8D1A24200D2F0BD013000D35B
:103D30000131121BF7E7F0B51C0C00D080E00CB489
:103D400000251C0A04D11B02160E3343120208354B
:103D50001C0B04D11B01160F3343120104359C0BBD
:103D600004D19B00960F334392000235DC0B02D145
:103D700092185B4101351C00971864410134464F8D
:103D80007C66464C3C660E0CFFE7FFE7FFE7C0464B
:103D90003C6F6643360C7703BE4697B27743C01B31
:103DA00000D20139C01B00D201399FB27743C91B31
:103DB000C91B170C77437E04FF0B801BB941CE084B
:103DC0006643360C0C2D33DBB644120B1F053A4309
:103DD0001B0B97B27743C01B00D201399FB27743C8
:103DE000C91B170C77433E043F0C801BB941860D5D
:103DF0008F023E43664329277F1BFE400C3D7746DA
:103E0000AF40BF1930BCA2B2ABB272437343801A49
:103E10009941220C7243130C1204801A994102003A
:103E20000B000137001BA941F9D2781E0021F0BD1B
:103E30000C277F1BFE4077467F0BAF40FF19E0E762
:103E400000245D1C07D0144F7D663966FFE7FFE74D
:103E5000FFE7FFE73C6F95B29EB265436643401BA8
:103E6000B141150C1E0C6543664336042F0C3E43CE
:103E70002D04401BB141994204D202000B002000E6
:103E80000021F0BD01D19042F7D3801A994101344D
:103E90009942F2D3F6E70000000000D0FFFFFFFFD9
:103EA00048404140484018B4134B5B68019308BD3B
:103EB00018B4114B1B68019308BD94460F4A926FCA
:103EC000920805D2624618B40B4BDB68019308BD1B
:103ED0000A4AF0B5146E556E576F166F6246FFF7BB
:103EE000F2FF064A1466556657671667F0BD18B4A8
:103EF000014B9B68019308BDE0050020000000D045
:103F0000FFB550404240504059404B40594000E0BE
:103F1000FFB5154F4C00640D03D0BC4204D10C0317
:103F200014D80020090D09055C00640D03D0BC42C3
:103F300004D11C030AD800221B0D1B0501264B408F
:103F400009D44B4003D58B4200D18242FFBD994238
:103F5000FCD19042FFBD0B43DB1803431343F5D064
:103F6000C9434918FFBD0000FF07000000B5FFF777
:103F7000CFFF804100BDC04600B5FFF7C9FF01D9A2
:103F8000002000BD012000BD00B5FFF7B9FF01D939
:103F9000002000BD012000BD00B5FFF7B1FF80414A
:103FA00000BD012040054A00121804D85A0012181A
:103FB00001D8002070470120704700000021002830
:103FC00005D17047C1174840401AFAD0C90713B548
:103FD000064B1B6898470CBC441CA2401005120BF2
:103FE0000349091B09051943114310BDCC0B0020DF
:103FF0001F04000010B54C00620D8023D218DB00B6
:10400000D21A5B057E2A10DD9E3A13DACC1709031B
:10401000490819435242D140640001341532202A24
:1040200005DAD0400843604310BD002010BD0846AB
:10403000604310BDC80FC018013810BD18B4024B42
:104040005B6A019308BD0000E005002010B501483F
:10405000FEF7F0FB24630010132370B51D78012DCB
:1040600019D014DD1D48FFF751FB06001C48FFF76F
:104070004DFB1C4C80223100200000F09BF8022DEB
:1040800006D01948FFF73AFB184B186070BD154C65
:10409000174BA364F5E7174B124C23606360A360D2
:1040A000E36023616361A361E36123626362A362EE
:1040B000E36223636363A363E36323646364A364CE
:1040C000E36423656365A365E36523666366A366AE
:1040D000E36623676367A367E367D9E75344000098
:1040E00053460000E00500204C330000CC0B0020BC
:1040F000F94000104D40001007B5604601880A0ADB
:104100000230DF2AFAD1C9B2820804D3028840887B
:104110000004104300E00068014A5050039007BDBE
:10412000E0050020014B5B6A18470000D00B00201F
:1041300010B50148FEF77EFB7C630010132310B519
:1041400010481C78FFF7E2FA0100012C0AD003DDC9
:1041500080220D4800F02EF80C48FFF7CFFA0C4BE8
:10416000186010BD084C5422200000F023F82200F3
:10417000084980322368002B00D121600434944226
:10418000F8D1E9E753460000D00B00204C33000083
:10419000CC0B00203141001001480421014B18478D
:1041A000300400201D370010014B1B681847000029
:1041B00030040020014B5B681847000030040020E9
:1041C0007047C046F8B55746DE464E464546E0B510
:1041D00099460A9B07009A460D9B884693460B9C7E
:1041E0009B073BD10C9B9C423DD21E1B0B941500A0
:1041F0000C005E442A004B46013521002020B847C0
:10420000B542F7D1A0460B9C002C20D0454636196C
:104210005346321B013C185D29004B46B847002C21
:10422000F6D12B00350098460D9B9B070FD55B46BA
:10423000EC1A0C9BA3420AD9464698462A004B46E4
:10424000310020200134B84701354445F6D3280019
:10425000F0BCBB46B246A946A046F8BD1600150004
:10426000002CD3D1E0E716001500002CCED1EEE7EC
:10427000F0B54546DE4657464E46E0B585B09C460D
:1042800010AB1B78149F934698460F9C129E139D6B
:10429000BB074CD4002D42D1B44248D201233B404D
:1042A00099460E9B013B9A46302304E05246013466
:1042B0001355A64201D9202CF8D14B46002B00D132
:1042C00083E00E9B013B99463023A54205D82EE0A2
:1042D0004A4601341355AC4229D0202CF8D1FB06B4
:1042E0000CD57B0554D4A64263D0A54261D0119B66
:1042F000102B50D0022B57D0202C32D120230193E9
:104300000E9B5A460093039763460295FFF75AFFA8
:1043100005B0F0BCBB46B246A946A046F0BD01239D
:104320003B40994601233B422AD1B442B9D3FB0614
:104330001CD57B05DBD4002CD5D1119B102B5BD079
:10434000119B022B6BD0302301240E9A137043462D
:10435000002B10D17B073ED52B260E9A631C1655D9
:10436000CDE72300013430260E9AD654202CC5D038
:104370004346002BEED02D260E9A631C1655BEE741
:104380004346002B2FD0013DB44200D289E798E785
:10439000119B102BB2D1BB0637D5202CAED05823A1
:1043A0000E9A13550134A7E7202CA7D0230001341F
:1043B00007E0631E012CC0D0119A102A31D0022AC6
:1043C000D1D162260E9AD65496E7FB06CED57B0550
:1043D00000D488E78BE723003E0790D520260E9A6D
:1043E000013316558BE70C233B405A1E9341ED1ABF
:1043F000B44200D255E764E7BB060ED478230E9A88
:104400000224137030235370A1E7202C00D175E7EC
:1044100078230E9A135501346EE75823EFE7603383
:10442000EDE70E9AA61E91464E44BA0602D55822D2
:10443000327098E77822327095E7C04610B50028B0
:1044400000D110BD01F080FCFBE7C0460B0010B5A9
:10445000002802D049681B68984710BDF0B5574640
:10446000DE464E464546E0B595B083460F0092467F
:1044700098461E9A1F9B10001900209EFFF791FD81
:10448000002800D0EAE11E981F990122C54B524234
:10449000FFF76CFD002800D014E11E981F9901223F
:1044A000C14B5242FFF778FD002800D0E9E01E988A
:1044B0001F990022BD4BFFF76FFD002800D0C8E018
:1044C0001E981F990022BA4BFFF750FD002800D01C
:1044D000BFE01E981F9900220023FFF747FD002828
:1044E00000D0E4E000230B93229B5B0500D406265A
:1044F0000024302307E0172106AA0134521813556F
:10450000013E202C01D0092EF5D81E981F99FFF7E7
:1045100071FDA84BF2009B181A685B6805000892B1
:104520000993FFF74FFD02000B001E981F99FFF73C
:10453000BAFC089A099BFFF7DAFC06900791FFF78F
:104540007DFD8146FFF73AFD02000B0006980799B2
:10455000FFF7A9FC0022984B06900791FFF71CFD7E
:10456000002800D10DE101239C46E1444846FFF7B5
:1045700025FD02000B0008980999FFF7FDFC0028B3
:1045800002D0002399460135002E00D1D9E00695CE
:104590004D46B94614E006AA944617230A216344FF
:1045A000280001341F19FFF743FA30313970280011
:1045B0000A21013EFFF73CFA092D00D817E105005A
:1045C000202CE8D14F46069D20240CAE06AA1723C6
:1045D0009446634499465B46B34606930FE04B46C8
:1045E00028000A210134E618FFF7FAF930312800D3
:1045F00031700A21FFF7F4F9051E00D1E4E0202C08
:10460000EDD1069B5E469B460323229A1340012B65
:1046100018D1219B002B15D00B9B002B00D1FDE066
:10462000219B013B2193202B0CD93023219A07E0B9
:10463000172006A9013409180B55944200D3CCE089
:10464000202CF5D1229B01940393219B0096029389
:1046500022E0229B52460493219B39000393584643
:104660001E9B1F9C029600930194434600F04AF95A
:104670000400200015B0F0BCBB46B246A946A046D7
:10468000F0BD229B5B070FD403224C4B2299019271
:1046900003912199009302914346524639005846AE
:1046A000FFF790FD0400E4E70422454BEEE71E9A75
:1046B0001F9B00200021FFF7F6FB01231E901F9196
:1046C0000B9311E7229B54469B0711D1219B042B8E
:1046D0000ED9219B55469C465E46043C64442A0004
:1046E0004346013539002020B047A542F7D1B346F3
:1046F000344D26002B1F99465B46A3461C00320012
:10470000E87843463900013DA04701364D45F6D1D2
:1047100023005C469B46229B04349B07A9D5534645
:10472000219AE31A9A42A4D95E4615002200434614
:1047300039002020B04753460134E31A9D42F5D892
:1047400097E72800FFF73EFC02000B001E981F9918
:10475000FFF7A9FB0022184B06900791FFF706FC14
:104760000CAE002800D031E7069807990022124BC2
:10477000FFF712FC002800D028E7012301359D43F4
:1047800024E70022069807990B4BFFF7EFFB002860
:1047900000D0F9E64B46002B5CD101239C46E14456
:1047A000F2E6C046FFFFEFFFFFFFEF7F65CDCD4193
:1047B00065CDCDC1F06500100000E03F80630010C2
:1047C0007863001088630010069B5E469B460323B7
:1047D000229A1340012B00D181E0202C00D131E737
:1047E0000B9B002B27D02D23335501342AE74F464E
:1047F000069D202C00D1E7E63022331907E0172070
:1048000006A9013409180A55202C00D1DCE6A34280
:10481000F5D12E220CAE0134F254D7E60C23229AA5
:10482000134257D0219B013B2193A34200D9FCE6C0
:10483000202C00D106E7229B5B0703D52B233355A1
:104840000134FFE6229B1B0700D4FBE620233355EF
:104850000134F7E6DB0700D496E69EE7229B554637
:104860009B0711D1219B032B0ED9219B54469C46BB
:104870005E46033D65442200434601343900202052
:10488000B047AC42F7D1B346B9465F461C4EEC1C6C
:104890002A00B078434649460135B847013EA54253
:1048A000F6D1229BBB464F469B0700D4E1E6534618
:1048B000219AE31A9A4200D8DBE65E4615002200F0
:1048C000434639002020B04753460134E31A9D4245
:1048D000F5D8CEE6219BA34200D9A6E6B2E6219BFD
:1048E000002B00D179E70B9B002B97D0219B013B3C
:1048F00021939C4200D298E6202C00D073E7A1E6D9
:1049000084630010F0B5DE4657464E464546E0B596
:1049100099B081468B4692469846229A239B100076
:104920001900FFF73EFB002800D0CAE02298239927
:104930000122824B5242FFF72FFB002800D0C0E03B
:104940002298239901227E4B5242FFF70FFB002849
:1049500000D0B6E02298239900220023FFF706FB3F
:10496000002800D0C9E1229B239C08930994089851
:1049700009998023269ADB001A400D928022269CFA
:104980001201144022000B94269C07000E001C42CA
:1049900000D0ADE00B00034300D0D5E0002A00D0EA
:1049A0000AE2220006332493022313400C930223CD
:1049B000134200D002E2259B042B00D20FE2043BFD
:1049C0000B93002304250A930022229823990023A5
:1049D000FFF7CCFA002800D003E25A4B269A134086
:1049E00004930B9B0393249B0293089B099C0093C5
:1049F00001945946434652464846FFF72FFD0200B0
:104A00002020269B1F27034059424B415B42184000
:104A1000531C0893594643464530C8470A9AD31752
:104A2000D4185C40D30F0A936B1E0B9308AB9C46C3
:104A30000025674401E0202D0FD020000A21FEF759
:104A4000F7FF01357E193031317020000A21FEF761
:104A5000EFFF26000400092EEDD8052306930B9BDB
:104A600059460593002304930A3303930A9B48464F
:104A7000029310AB0093089A43460195FFF7F8FBA9
:104A80000C9B002B2DD05346C41A259BA34228D93A
:104A90004D465F4681461E00534639001A192020B4
:104AA00043460134A847A642F6D8534648462599BE
:104AB000C21A01320023914200D386E10130181856
:104AC0000FE0269B0493259B0393249B0293229B38
:104AD000239C009301944346524659464846FFF7AB
:104AE000BDFC19B0F0BCBB46B246A946A046F0BD1D
:104AF00001432BD10B9B2200002B00D154E7002354
:104B00000A93249B0A9A0024934200DD85E12298AF
:104B1000239900220023FFF729FA002800D035E16D
:104B2000269B084A02941A408023DB001343049317
:104B3000259B0393089B099CCBE7C046FFFFEF7FB3
:104B4000FFFFEFFFFFF7FFFF06232493B44B700036
:104B50009C46400D6044FFF735FAB24AB24BFFF76E
:104B6000C6F9B24AB24BFFF7A3F93603B14B360B85
:104B7000334304000D00380019000022AE4BFFF74C
:104B800092F9AE4AAE4BFFF7B2F902000B002000DB
:104B90002900FFF78DF9FFF72DFA0A90FFF712FAB7
:104BA000A84AA94B04000D00FFF7A1F90022A74B6A
:104BB000FFF77EF9FFF71EFAA54A0600A54B200075
:104BC0002900FFF794F9040030000D000C96FFF760
:104BD000F9F9A14AA14BFFF78AF902000B00200066
:104BE0002900FFF760F902000B0006000F00FFF735
:104BF0007EF9320004000D003B0030003900FFF761
:104C000057F900220E900F91954B20002900FFF7D5
:104C100054F90022934BFFF74BF902000B002000E0
:104C20002900FFF74AF900228F4BFFF741F90200F4
:104C30000B0020002900FFF740F90D00802104003F
:104C400032003B000020C905FFF72DF902000B00E0
:104C500020002900FFF72CF902000B000E980F9995
:104C6000FFF72BF90022734BFFF722F97F4B0C9CC7
:104C70009C46644400222305FFF739F906000F0023
:104C800002000B0008980999FFF770F900280AD074
:104C90000A9B3000013B39000A930022714BFFF759
:104CA0000CF906000F000A9A330063323900C62A55
:104CB00012D802222698042510400B9A0C90002A44
:104CC00025D1259B042B05D9002800D0A1E0259BE8
:104CD000043B0B93042541E00222269810400B9AD6
:104CE0000C90002A12D1259B052B76D9002872D171
:104CF000259B0525053B0B9334E080221206944644
:104D0000229B0893239B6344099330E605250B43BC
:104D100000D1F6E608980999554A564BFFF734F941
:104D2000002808D0089809990022534BFFF71EF974
:104D3000002800D0E5E6249B002B1CD00D9B002B07
:104D400019D0249B013B2493259BAB4204D90C9B97
:104D5000002B5AD002230C9300230B930A9B002BA9
:104D600000D131E60898099932003B00FFF7A5F819
:104D70000890099128E6259BAB42EDD90C9B002BAE
:104D800043D000230B9302330C93E7E78020269B4C
:104D90003A4A00061A40802384460294089C099DE2
:104DA0002900DB0013430493259B614422000393F5
:104DB0000B00009201938EE60524A8E600230B93D6
:104DC0000A93023304250C93FEE553468C46013BBF
:104DD00063441B1A72E602230C930525C2E70423E1
:104DE000EDE58020089E099F000639008446269A3A
:104DF000224B6144134004930B9B32000393249B8A
:104E000002930B0000920193F3E5259B5B1B0B9330
:104E1000A4E7022304250C93A0E79C1A013C76E644
:104E200001FCFFFFFB799F501344D33FB3C8608B55
:104E3000288AC63F0000F03F0000F83F61436F63DF
:104E4000A787D23F71A379094F930A400000E03F42
:104E50001655B5BBB16B0240EF39FAFE422EE63F64
:104E600000002C400000244000001840FF03000018
:104E70002D431CEBE2361A3F80842E41FFF7FFFFE3
:104E8000F0B5DE4657464E464546E0B5A5B01E0095
:104E90002E9B92460C93CD4ACD4B80468B461A6092
:104EA000002900D1EAE1002330789946002800D19A
:104EB000ECE1C84B4C460B93C74B454657460E9307
:104EC0000AE0631C984622003B005946A847444626
:104ED0003078002800D187E001362528F1D1082359
:104EE0009A46043B9946023B9846013B00229C4669
:104EF0000D943078711C0300203BDBB2102B03D8DB
:104F00000B9C9B00E3589F460300303B89460D9C59
:104F1000092B3AD9002398462A2800D1C1E0002362
:104F20009A462E284BD00300683BDBB2122B1ED8CA
:104F30000E999B00CB589F4663460E001A43D8E754
:104F400043460E001A43D4E74B460E001A43D0E7FF
:104F500010230E001A43CCE753460E001A43C8E74D
:104F600080235B001A43FF3B9C467078E1444E4629
:104F700067284FD82428A4D90300253BDBB2422B55
:104F80009FD896499B00CB589F46002394461E000D
:104F900000E00131B3009B195B001E180878303E19
:104FA0000300303B092BF4D90123624689469C4615
:104FB0000023B0469A460E00E1442E28B3D130219A
:104FC000802049428C46C000024370784B4684449E
:104FD0006146092900D86CE12A2800D17AE1012331
:104FE0009C464E46E1449EE7A146A846BA46CA45BD
:104FF00003D801235B425344994653464A465946D7
:105000000020C047200025B0F0BCBB46B246A946F0
:10501000A046F0BD0300693BDBB20D930F2B00D916
:105020004FE7012199408C466D49894661464B46C0
:1050300019400F91634649460B4200D028E10D9B71
:105040000A2B3AD0072B00D03BE70C9B190008C96C
:105050008846002B00D14BE121200243914614A940
:105060008C461F220F2162448C4651460D950C91AF
:10507000A24615000F9902E020290CD013006446C7
:105080001C4020003730092C00D807380131685403
:105090001A090F2BF0D80C9B54460D9D9A460F9180
:1050A00033E10C9B02CB8846002947DB0C9301239C
:1050B0009C4670784E46E14431E70C9B02CB14933A
:1050C0005346002B00D138E19C4608780B000C9029
:1050D0008C44002801D100F098FC89466146944632
:1050E00003E05A780133002A01D08B42F9D14946B6
:1050F00062465B1A0C900F93530500D520E1022302
:10510000180010400D90134200D1CBE30D930B1B00
:10511000B1469A465E460C9822003B003100A847F3
:1051200053460134185D0028F6D1B3464E460D9B18
:10513000002B00D0C7E1149B0C93C9E60C9301230C
:105140009C46283849420243884670784E46E144DE
:10515000E5E670786C2800D17FE180235B001A437C
:10516000FF3B9C46E14402E780239B001A43012356
:105170009C467078E144FAE67078682800D173E1C3
:1051800080231A437F3B9C46E144F0E6672800D128
:1051900003E1472800D15AE1452800D15AE10492A1
:1051A000072142460C9B0392073352468B4319005A
:1051B00002920CC92800009201930C9122003B003E
:1051C0005946FFF79FFB040082E6C046814E00105F
:1051D000180B00205464001098640010E464001060
:1051E00041900000462800D1DBE0049207214246AE
:1051F0000C9B0392073352468B43190002920CC951
:105200002800009201930C9122003B005946FFF7C1
:1052100025F904005CE6631C984622003B005946D1
:105220002520A847444653E60C9B04330D93631C8A
:105230009946920700D422E10C9B22001878594627
:105240003B00A84743464444012B00D885E2330085
:10525000B8462E005F4625004C469946220043463C
:10526000013439002020B047AC42F7D12C00BB46B6
:10527000350047464E460D9B0C9329E6DB4B3078B4
:10528000984600239946002800D012E60024AEE696
:105290006F2800D188E000D80BE31023782800D1D4
:1052A000CFE09A430A239C4600230F930A330D93C1
:1052B00080E05646B1008919490001330E1818786C
:1052C000303E010030390929F4D9B2461E000133BD
:1052D000994628E60C9B023602CB8A46C9435046C3
:1052E000C917084082460C933078731C99461AE619
:1052F0001023100098431133184381468020130077
:10530000C0000340024200D1A9E64B4606930823A1
:1053100005935346049310230393002302930F9B9A
:10532000220001931CAB009359463B002800FEF776
:105330009FFF434604000C93CAE501235B42C3E68A
:105340000F9B534501D953460F9302231800104079
:105350000D90134200D1B7E10D93D1460B1B9A4635
:105360003300A1442E0022004D460C98B9465F46FA
:105370009B4608E04B463900541CB0475346185D25
:10538000002877D022009542F4D15B46BB464F46B9
:10539000A94635004C461E00C9E680231B011A436E
:1053A000FDE620231A4320E708239C4600230F93A1
:1053B00008330D9380231100DB0019401A4200D1FD
:1053C00016E10D239A431000802302009B001A402F
:1053D0001492184200D0C2E1802302005B001A4000
:1053E00091460C9A04320F92184200D0B7E243065D
:1053F00000D59FE1030600D419E30C9B1B88099399
:10540000002B00D0FCE110339843002900D1F7E1D4
:105410000023994643460593534604930D9B0690FB
:1054200003930023D2E0582808D0622867D10223D2
:105430009C4600230F9302330D93BBE720231A43AE
:10544000103B9C4600230F9310330D93B2E780234B
:105450001B011A4320231A43A1E6C0239B001A43D1
:10546000F31C9946B07882E5C0231A43F31C994691
:10547000B0787CE535005E46BB464F4657E643466E
:10548000012B00D863E1631E43449A463300B946BA
:105490002E005F4655469B46A24622004B460134ED
:1054A00039002020B047AC42F7D135005E46BB46FC
:1054B0004F46A14654460C9B4A46187859463B0035
:1054C0004444A847D7E6A1460F9B984500D832E64A
:1054D0004444E41A3300B8462E005F4625004C468B
:1054E000994622004346013439002020B047AC429F
:1054F000F7D12C00BB46350047464E461BE68023BD
:105500001000DB0018401A4200D10FE111211800F1
:105510008A430D920D9A802311009B0019408C46FE
:105520001A4269D1802311005B00194089460C9909
:1055300004310F911A4200D0CAE113005B0600D576
:10554000F0E013001B0600D459E20C9B00229B5E86
:10555000D9175A184A4092B2D90F0C91002B00D19A
:10556000F9E1100014AA944642461F2314925246B1
:105570006344A84616944D460400B946B2461F003F
:10558000159201E0202D0FD020000A21FEF750FADD
:1055900001357E193031317020000A21FEF748FABA
:1055A00026000400092EEDD8149B4F46A946454617
:1055B0009846159B56469A46169C0D9B0693434665
:1055C0000593534604930A2303930C9B02934B4683
:1055D00001931CAB2200009359463B002800FEF7C4
:1055E00047FE0F9B04000C9372E4C046C1410010BB
:1055F0000C239A431000E7E607220C9B07339343E2
:10560000013294469C4462460C920CCBD90F0F9108
:105610001100194300D191E0D91713911291514013
:10562000109113995940119110981199129A139B46
:10563000801A99411090119114AA00239446424671
:105640009946149252461F336344A846B2461694B4
:105650004E46109C119DB94615921F0001E0202E68
:1056600010D0200029000A220023FEF71FFA01367D
:1056700030322B00BA550D0022000400002BEED171
:10568000092AECD8149B1094119545469846159B11
:105690004F46B14656469A46169C0D9B0693434686
:1056A0000593534604930A2303930F9B02934B469F
:1056B00001931CAB2200009359463B002800FEF7E3
:1056C000D7FD0400FFF704FC0F9B984500D8C1E10B
:1056D0008023DB000D9343460F9A1B199B1A9946B2
:1056E00033002E004D46B9465F469B460C91220082
:1056F0004B46013439002020B047AC42F7D1434635
:105700000C9901330F930B7835000C935E46BB4622
:105710004F46002B00D10EE50D9B002B00D1F6E487
:10572000002319E60C9B1B781A0015E710239A43F7
:105730000D92EFE60C9B1B78099361E600239946D6
:105740000028AAD1002200231092119374E70C9B29
:105750002200187859463B00A8474C468BE50C9A26
:10576000FA3BFF3B07329A430133994691444B463B
:105770000C931368526815921A4306D11032904365
:1057800000220992002900D081E06122810600D523
:105790004122D2B20A9214AA91460A9A00210A3AE8
:1057A000149242461792524618925A460991B346AD
:1057B0001F311E000F9B4944BA4619941A950024C4
:1057C000674698468946159D16901B920AE030322E
:1057D000D2B24B4601341A55A8454AD0202C4AD0A3
:1057E00006000D003A00002330002900FEF75EF9A4
:1057F000D2B2092AEBD9149B9C466244D2B2E8E7A4
:105800006123820600D54123DBB20A3B0C93434659
:1058100014A91F228C46159353466244A046B246F3
:105820004C461797A9461700099D0D9E1490169394
:1058300008E03033DBB201343B55B5420ED3202CA7
:105840000CD0050031002800FEF7F2F8CBB2092990
:10585000EFD90C9A94466344DBB2ECE7159B4D46B6
:10586000A14644469846169B564614989A46179F5A
:10587000D0E5B742B2D9179B57469846189B5E466B
:105880009A461B9B09949B461698199C1A9D434661
:105890000593534604930D9B0690039300230293B4
:1058A000099B05E70F9B984500D914E701330F9337
:1058B0002DE41023110099430D91692800D0BAE01E
:1058C00080231000DB0018401A4200D122E61DE6BA
:1058D0000C9B1B68DA0F1100002B00D18CE0DA174B
:1058E0009818504014AA914642461F2314925246DB
:1058F0004B44A046A946169704006546B2461F00D1
:105900000C91159201E0202D0FD020000A21FEF706
:105910008FF801357E193031317020000A21FEF7F1
:1059200087F826000400092EEDD8149B44469846BB
:105930000C9BAC461900159B56464D469A46169F41
:105940000D9B0291069343460593534604930A2305
:10595000039363463CE6002800D02EE602E60C9B4B
:105960001B689946002B03D110339843002938D186
:105970006123820600D54123DBB20A3B0C934346E8
:105980001693534614A91F228C4617932B0062448A
:10599000A0464D46B246189799461700149C0D9E96
:1059A000159008E03033DBB201343B55B5420ED3DD
:1059B000202C0CD0050031002800FEF739F8CBB2BE
:1059C0000929EFD90C9A94466344DBB2ECE7169BA5
:1059D000149444469846179B56464D469A46159849
:1059E000189F43460593534604930D9B06900393DB
:1059F00000230293149BEBE50028A1D172E70C9BD6
:105A00001B68D9175A184A40A6E580231000DB000E
:105A100018409C460F901A420FD0022003001340FA
:105A20000F93104219D00023A1460F934CE50C9B15
:105A30001B680993E4E40A0034E4022318001040D0
:105A40000D90134200D03EE54346002B00D042E6C5
:105A5000FFF771FB01330F937FE463460D93F3E788
:105A600010B50C0084B00394012402A902900093A5
:105A7000034813006242FFF703FA04B010BDC046AA
:105A80004D44001010B5094A0300146884B0002C7E
:105A900008D0012200910648524203A9A0470120E4
:105AA00004B010BD00F09AF90020F9E7180B0020AF
:105AB0003D44001000BEFDE710B5FFF7FBFFC046F8
:105AC00070B5FDF769FE074D074EB54209D20024B7
:105AD000013E761BB60808CD984723000134B34237
